{
  "address": "0x5FbDB2315678afecb367f032d93F642f64180aa3",
  "abi": [
    {
      "anonymous": false,
      "inputs": [
        {
          "indexed": false,
          "internalType": "address",
          "name": "instanceAddress",
          "type": "address"
        }
      ],
      "name": "CreateTokenSale",
      "type": "event"
    },
    {
      "anonymous": false,
      "inputs": [
        {
          "indexed": false,
          "internalType": "address",
          "name": "airdrop",
          "type": "address"
        }
      ],
      "name": "SetAirdrop",
      "type": "event"
    },
    {
      "inputs": [
        {
          "internalType": "address",
          "name": "candidate",
          "type": "address"
        }
      ],
      "name": "addMaintainer",
      "outputs": [],
      "stateMutability": "nonpayable",
      "type": "function"
    },
    {
      "inputs": [
        {
          "components": [
            {
              "internalType": "address",
              "name": "initialAddress",
              "type": "address"
            },
            {
              "internalType": "address",
              "name": "token",
              "type": "address"
            },
            {
              "internalType": "uint256",
              "name": "totalSaleSupply",
              "type": "uint256"
            },
            {
              "internalType": "uint256",
              "name": "privatePoolSaleStartTime",
              "type": "uint256"
            },
            {
              "internalType": "uint256",
              "name": "privatePoolSaleEndTime",
              "type": "uint256"
            },
            {
              "internalType": "uint256",
              "name": "publicPoolSaleStartTime",
              "type": "uint256"
            },
            {
              "internalType": "uint256",
              "name": "publicPoolSaleEndTime",
              "type": "uint256"
            },
            {
              "internalType": "uint256",
              "name": "privatePoolTokenPrice",
              "type": "uint256"
            },
            {
              "internalType": "uint256",
              "name": "publicPoolTokenPrice",
              "type": "uint256"
            },
            {
              "internalType": "uint256",
              "name": "democracyHourEndTimestamp",
              "type": "uint256"
            },
            {
              "internalType": "uint256",
              "name": "publicRoundBuyLimit",
              "type": "uint256"
            },
            {
              "internalType": "uint256",
              "name": "escrowPercentage",
              "type": "uint256"
            },
            {
              "internalType": "uint256[4]",
              "name": "tierPrices",
              "type": "uint256[4]"
            },
            {
              "internalType": "uint256[2][]",
              "name": "escrowReturnMilestones",
              "type": "uint256[2][]"
            },
            {
              "internalType": "uint256",
              "name": "thresholdPublicAmount",
              "type": "uint256"
            }
          ],
          "internalType": "struct ITokenSale.Params",
          "name": "_params",
          "type": "tuple"
        }
      ],
      "name": "createPool",
      "outputs": [],
      "stateMutability": "nonpayable",
      "type": "function"
    },
    {
      "inputs": [],
      "name": "exchangeOracle",
      "outputs": [
        {
          "internalType": "address",
          "name": "",
          "type": "address"
        }
      ],
      "stateMutability": "view",
      "type": "function"
    },
    {
      "inputs": [],
      "name": "forAirdrop",
      "outputs": [
        {
          "internalType": "address",
          "name": "",
          "type": "address"
        }
      ],
      "stateMutability": "view",
      "type": "function"
    },
    {
      "inputs": [],
      "name": "getMaintainers",
      "outputs": [
        {
          "internalType": "address[]",
          "name": "",
          "type": "address[]"
        }
      ],
      "stateMutability": "view",
      "type": "function"
    },
    {
      "inputs": [],
      "name": "getTokenSales",
      "outputs": [
        {
          "internalType": "address[]",
          "name": "",
          "type": "address[]"
        }
      ],
      "stateMutability": "view",
      "type": "function"
    },
    {
      "inputs": [
        {
          "internalType": "address",
          "name": "maintainer",
          "type": "address"
        }
      ],
      "name": "isMaintainer",
      "outputs": [
        {
          "internalType": "bool",
          "name": "",
          "type": "bool"
        }
      ],
      "stateMutability": "view",
      "type": "function"
    },
    {
      "inputs": [],
      "name": "masterTokenSale",
      "outputs": [
        {
          "internalType": "address",
          "name": "",
          "type": "address"
        }
      ],
      "stateMutability": "view",
      "type": "function"
    },
    {
      "inputs": [
        {
          "internalType": "address",
          "name": "maintainer",
          "type": "address"
        }
      ],
      "name": "removeMaintainer",
      "outputs": [],
      "stateMutability": "nonpayable",
      "type": "function"
    },
    {
      "inputs": [
        {
          "internalType": "address",
          "name": "_address",
          "type": "address"
        }
      ],
      "name": "setAirdrop",
      "outputs": [],
      "stateMutability": "nonpayable",
      "type": "function"
    },
    {
      "inputs": [
        {
          "internalType": "address",
          "name": "_address",
          "type": "address"
        }
      ],
      "name": "setMasterContract",
      "outputs": [],
      "stateMutability": "nonpayable",
      "type": "function"
    },
    {
      "inputs": [
        {
          "internalType": "address",
          "name": "_address",
          "type": "address"
        }
      ],
      "name": "setOracleContract",
      "outputs": [],
      "stateMutability": "nonpayable",
      "type": "function"
    },
    {
      "inputs": [
        {
          "internalType": "address",
          "name": "_address",
          "type": "address"
        }
      ],
      "name": "setStakingContract",
      "outputs": [],
      "stateMutability": "nonpayable",
      "type": "function"
    },
    {
      "inputs": [],
      "name": "stakingContract",
      "outputs": [
        {
          "internalType": "address",
          "name": "",
          "type": "address"
        }
      ],
      "stateMutability": "view",
      "type": "function"
    },
    {
      "inputs": [
        {
          "internalType": "uint256",
          "name": "",
          "type": "uint256"
        }
      ],
      "name": "tokenSales",
      "outputs": [
        {
          "internalType": "address",
          "name": "",
          "type": "address"
        }
      ],
      "stateMutability": "view",
      "type": "function"
    },
    {
      "inputs": [
        {
          "internalType": "address",
          "name": "",
          "type": "address"
        }
      ],
      "name": "tokenSalesM",
      "outputs": [
        {
          "internalType": "bool",
          "name": "",
          "type": "bool"
        }
      ],
      "stateMutability": "view",
      "type": "function"
    }
  ],
  "transactionHash": "0x0cd3eafc95143a2a2304177cd996aa21beb1fb299d4045cbe8a7dcd0893f33aa",
  "args": [],
  "solcInputHash": "cfc1857a56117699cbc970ea70bc13d5",
  "bytecode": "0x608060405234801561001057600080fd5b5060016000803373ffffffffffffffffffffffffffffffffffffffff1673ffffffffffffffffffffffffffffffffffffffff16815260200190815260200160002060006101000a81548160ff0219169083151502179055506002339080600181540180825580915050600190039060005260206000200160009091909190916101000a81548173ffffffffffffffffffffffffffffffffffffffff021916908373ffffffffffffffffffffffffffffffffffffffff1602179055506125db806100da6000396000f3fe608060405234801561001057600080fd5b50600436106101005760003560e01c80638c30d6d811610097578063d17f422511610066578063d17f422514610285578063d8baf7cf146102a3578063dd57366a146102bf578063ee99205c146102ef57610100565b80638c30d6d8146102115780639dd373b91461022d578063a05220ad14610249578063cb1fb0141461026757610100565b80636b453c1f116100d35780636b453c1f1461018b57806372820dbc146101a75780638a1ac551146101c35780638bf8150d146101e157610100565b80630c6ed9c2146101055780632a3a236f1461012357806345cf084b1461013f578063496ccd9b1461016f575b600080fd5b61010d61030d565b60405161011a9190611e5f565b60405180910390f35b61013d60048036038101906101389190611819565b61039b565b005b610159600480360381019061015491906118ac565b610499565b6040516101669190611e0d565b60405180910390f35b61018960048036038101906101849190611819565b6104d8565b005b6101a560048036038101906101a09190611819565b6105d6565b005b6101c160048036038101906101bc9190611819565b6107b0565b005b6101cb6108e5565b6040516101d89190611e0d565b60405180910390f35b6101fb60048036038101906101f69190611819565b61090b565b6040516102089190611e81565b60405180910390f35b61022b6004803603810190610226919061186b565b61092b565b005b61024760048036038101906102429190611819565b610d94565b005b610251610e92565b60405161025e9190611e0d565b60405180910390f35b61026f610eb8565b60405161027c9190611e0d565b60405180910390f35b61028d610ede565b60405161029a9190611e5f565b60405180910390f35b6102bd60048036038101906102b89190611819565b610f6c565b005b6102d960048036038101906102d49190611819565b611378565b6040516102e69190611e81565b60405180910390f35b6102f76113cd565b6040516103049190611e0d565b60405180910390f35b6060600380548060200260200160405190810160405280929190818152602001828054801561039157602002820191906000526020600020905b8160009054906101000a900473ffffffffffffffffffffffffffffffffffffffff1673ffffffffffffffffffffffffffffffffffffffff1681526020019060010190808311610347575b5050505050905090565b6103a433611378565b6103e3576040517f08c379a00000000000000000000000000000000000000000000000000000000081526004016103da90611ebe565b60405180910390fd5b80600073ffffffffffffffffffffffffffffffffffffffff168173ffffffffffffffffffffffffffffffffffffffff161415610454576040517f08c379a000000000000000000000000000000000000000000000000000000000815260040161044b90611f1e565b60405180910390fd5b81600460006101000a81548173ffffffffffffffffffffffffffffffffffffffff021916908373ffffffffffffffffffffffffffffffffffffffff1602179055505050565b600381815481106104a957600080fd5b906000526020600020016000915054906101000a900473ffffffffffffffffffffffffffffffffffffffff1681565b6104e133611378565b610520576040517f08c379a000000000000000000000000000000000000000000000000000000000815260040161051790611ebe565b60405180910390fd5b80600073ffffffffffffffffffffffffffffffffffffffff168173ffffffffffffffffffffffffffffffffffffffff161415610591576040517f08c379a000000000000000000000000000000000000000000000000000000000815260040161058890611f1e565b60405180910390fd5b81600760006101000a81548173ffffffffffffffffffffffffffffffffffffffff021916908373ffffffffffffffffffffffffffffffffffffffff1602179055505050565b6105df33611378565b61061e576040517f08c379a000000000000000000000000000000000000000000000000000000000815260040161061590611ebe565b60405180910390fd5b6000808273ffffffffffffffffffffffffffffffffffffffff1673ffffffffffffffffffffffffffffffffffffffff16815260200190815260200160002060009054906101000a900460ff16156106aa576040517f08c379a00000000000000000000000000000000000000000000000000000000081526004016106a190611f9e565b60405180910390fd5b60016000808373ffffffffffffffffffffffffffffffffffffffff1673ffffffffffffffffffffffffffffffffffffffff16815260200190815260200160002060006101000a81548160ff021916908315150217905550600280549050600160008373ffffffffffffffffffffffffffffffffffffffff1673ffffffffffffffffffffffffffffffffffffffff168152602001908152602001600020819055506002819080600181540180825580915050600190039060005260206000200160009091909190916101000a81548173ffffffffffffffffffffffffffffffffffffffff021916908373ffffffffffffffffffffffffffffffffffffffff16021790555050565b6107b933611378565b6107f8576040517f08c379a00000000000000000000000000000000000000000000000000000000081526004016107ef90611ebe565b60405180910390fd5b80600073ffffffffffffffffffffffffffffffffffffffff168173ffffffffffffffffffffffffffffffffffffffff161415610869576040517f08c379a000000000000000000000000000000000000000000000000000000000815260040161086090611f1e565b60405180910390fd5b81600660006101000a81548173ffffffffffffffffffffffffffffffffffffffff021916908373ffffffffffffffffffffffffffffffffffffffff1602179055507fbf0e311b1201ad81f296821d42657c501de65d478afbafc3c7cacbd1bcd88f4b826040516108d99190611e0d565b60405180910390a15050565b600460009054906101000a900473ffffffffffffffffffffffffffffffffffffffff1681565b60086020528060005260406000206000915054906101000a900460ff1681565b61093433611378565b610973576040517f08c379a000000000000000000000000000000000000000000000000000000000815260040161096a90611ebe565b60405180910390fd5b60008160400135116109ba576040517f08c379a00000000000000000000000000000000000000000000000000000000081526004016109b19061201e565b60405180910390fd5b8060600135816080013511610a04576040517f08c379a00000000000000000000000000000000000000000000000000000000081526004016109fb90611ede565b60405180910390fd5b80606001358160a0013511610a4e576040517f08c379a0000000000000000000000000000000000000000000000000000000008152600401610a4590611f7e565b60405180910390fd5b8060a001358160c0013511610a98576040517f08c379a0000000000000000000000000000000000000000000000000000000008152600401610a8f90611ede565b60405180910390fd5b600073ffffffffffffffffffffffffffffffffffffffff16816000016020810190610ac39190611819565b73ffffffffffffffffffffffffffffffffffffffff1614158015610b265750600073ffffffffffffffffffffffffffffffffffffffff16816020016020810190610b0d9190611819565b73ffffffffffffffffffffffffffffffffffffffff1614155b610b65576040517f08c379a0000000000000000000000000000000000000000000000000000000008152600401610b5c90611fbe565b60405180910390fd5b6000610b92600460009054906101000a900473ffffffffffffffffffffffffffffffffffffffff166113f3565b90508073ffffffffffffffffffffffffffffffffffffffff16634423805583600560009054906101000a900473ffffffffffffffffffffffffffffffffffffffff1630600760009054906101000a900473ffffffffffffffffffffffffffffffffffffffff166040518563ffffffff1660e01b8152600401610c17949392919061203e565b600060405180830381600087803b158015610c3157600080fd5b505af1158015610c45573d6000803e3d6000fd5b505050506003819080600181540180825580915050600190039060005260206000200160009091909190916101000a81548173ffffffffffffffffffffffffffffffffffffffff021916908373ffffffffffffffffffffffffffffffffffffffff1602179055506001600860008373ffffffffffffffffffffffffffffffffffffffff1673ffffffffffffffffffffffffffffffffffffffff16815260200190815260200160002060006101000a81548160ff021916908315150217905550610d59826000016020810190610d1a9190611819565b828460400135856020016020810190610d339190611819565b73ffffffffffffffffffffffffffffffffffffffff166114c8909392919063ffffffff16565b7f38780dedcca1641d8a3829868b1c61839e822b540ca7569d4b791b5015430ab981604051610d889190611e0d565b60405180910390a15050565b610d9d33611378565b610ddc576040517f08c379a0000000000000000000000000000000000000000000000000000000008152600401610dd390611ebe565b60405180910390fd5b80600073ffffffffffffffffffffffffffffffffffffffff168173ffffffffffffffffffffffffffffffffffffffff161415610e4d576040517f08c379a0000000000000000000000000000000000000000000000000000000008152600401610e4490611f1e565b60405180910390fd5b81600560006101000a81548173ffffffffffffffffffffffffffffffffffffffff021916908373ffffffffffffffffffffffffffffffffffffffff1602179055505050565b600760009054906101000a900473ffffffffffffffffffffffffffffffffffffffff1681565b600660009054906101000a900473ffffffffffffffffffffffffffffffffffffffff1681565b60606002805480602002602001604051908101604052809291908181526020018280548015610f6257602002820191906000526020600020905b8160009054906101000a900473ffffffffffffffffffffffffffffffffffffffff1673ffffffffffffffffffffffffffffffffffffffff1681526020019060010190808311610f18575b5050505050905090565b610f7533611378565b610fb4576040517f08c379a0000000000000000000000000000000000000000000000000000000008152600401610fab90611ebe565b60405180910390fd5b6000808273ffffffffffffffffffffffffffffffffffffffff1673ffffffffffffffffffffffffffffffffffffffff16815260200190815260200160002060009054906101000a900460ff1661103f576040517f08c379a000000000000000000000000000000000000000000000000000000000815260040161103690611efe565b60405180910390fd5b60008060008373ffffffffffffffffffffffffffffffffffffffff1673ffffffffffffffffffffffffffffffffffffffff16815260200190815260200160002060006101000a81548160ff021916908315150217905550600260016002805490506110aa91906121b8565b815481106110e1577f4e487b7100000000000000000000000000000000000000000000000000000000600052603260045260246000fd5b9060005260206000200160009054906101000a900473ffffffffffffffffffffffffffffffffffffffff166002600160008473ffffffffffffffffffffffffffffffffffffffff1673ffffffffffffffffffffffffffffffffffffffff1681526020019081526020016000205481548110611185577f4e487b7100000000000000000000000000000000000000000000000000000000600052603260045260246000fd5b9060005260206000200160006101000a81548173ffffffffffffffffffffffffffffffffffffffff021916908373ffffffffffffffffffffffffffffffffffffffff160217905550600160008273ffffffffffffffffffffffffffffffffffffffff1673ffffffffffffffffffffffffffffffffffffffff16815260200190815260200160002054600160006002600160028054905061122591906121b8565b8154811061125c577f4e487b7100000000000000000000000000000000000000000000000000000000600052603260045260246000fd5b9060005260206000200160009054906101000a900473ffffffffffffffffffffffffffffffffffffffff1673ffffffffffffffffffffffffffffffffffffffff1673ffffffffffffffffffffffffffffffffffffffff1681526020019081526020016000208190555060028054806112fd577f4e487b7100000000000000000000000000000000000000000000000000000000600052603160045260246000fd5b6001900381819060005260206000200160006101000a81549073ffffffffffffffffffffffffffffffffffffffff02191690559055600160008273ffffffffffffffffffffffffffffffffffffffff1673ffffffffffffffffffffffffffffffffffffffff1681526020019081526020016000206000905550565b60008060008373ffffffffffffffffffffffffffffffffffffffff1673ffffffffffffffffffffffffffffffffffffffff16815260200190815260200160002060009054906101000a900460ff169050919050565b600560009054906101000a900473ffffffffffffffffffffffffffffffffffffffff1681565b60006040517f3d602d80600a3d3981f3363d3d373d3d3d363d7300000000000000000000000081528260601b60148201527f5af43d82803e903d91602b57fd5bf3000000000000000000000000000000000060288201526037816000f0915050600073ffffffffffffffffffffffffffffffffffffffff168173ffffffffffffffffffffffffffffffffffffffff1614156114c3576040517f08c379a00000000000000000000000000000000000000000000000000000000081526004016114ba90611f5e565b60405180910390fd5b919050565b61154b846323b872dd60e01b8585856040516024016114e993929190611e28565b604051602081830303815290604052907bffffffffffffffffffffffffffffffffffffffffffffffffffffffff19166020820180517bffffffffffffffffffffffffffffffffffffffffffffffffffffffff8381831617835250505050611551565b50505050565b60006115b3826040518060400160405280602081526020017f5361666545524332303a206c6f772d6c6576656c2063616c6c206661696c65648152508573ffffffffffffffffffffffffffffffffffffffff166116189092919063ffffffff16565b905060008151111561161357808060200190518101906115d39190611842565b611612576040517f08c379a000000000000000000000000000000000000000000000000000000000815260040161160990611ffe565b60405180910390fd5b5b505050565b60606116278484600085611630565b90509392505050565b606082471015611675576040517f08c379a000000000000000000000000000000000000000000000000000000000815260040161166c90611f3e565b60405180910390fd5b61167e85611744565b6116bd576040517f08c379a00000000000000000000000000000000000000000000000000000000081526004016116b490611fde565b60405180910390fd5b6000808673ffffffffffffffffffffffffffffffffffffffff1685876040516116e69190611df6565b60006040518083038185875af1925050503d8060008114611723576040519150601f19603f3d011682016040523d82523d6000602084013e611728565b606091505b5091509150611738828286611757565b92505050949350505050565b600080823b905060008111915050919050565b60608315611767578290506117b7565b60008351111561177a5782518084602001fd5b816040517f08c379a00000000000000000000000000000000000000000000000000000000081526004016117ae9190611e9c565b60405180910390fd5b9392505050565b6000813590506117cd81612560565b92915050565b6000815190506117e281612577565b92915050565b600061024082840312156117fb57600080fd5b81905092915050565b6000813590506118138161258e565b92915050565b60006020828403121561182b57600080fd5b6000611839848285016117be565b91505092915050565b60006020828403121561185457600080fd5b6000611862848285016117d3565b91505092915050565b60006020828403121561187d57600080fd5b600082013567ffffffffffffffff81111561189757600080fd5b6118a3848285016117e8565b91505092915050565b6000602082840312156118be57600080fd5b60006118cc84828501611804565b91505092915050565b60006118e18383611905565b60208301905092915050565b60006118f983836119de565b60408301905092915050565b61190e816121ec565b82525050565b61191d816121ec565b82525050565b600061192e826120a4565b61193881856120df565b93506119438361208a565b8060005b8381101561197457815161195b88826118d5565b9750611966836120c5565b925050600181019050611947565b5085935050505092915050565b600061198d83856120f0565b93506119988261209a565b8060005b858110156119d1576119ae828461218b565b6119b888826118ed565b97506119c3836120d2565b92505060018101905061199c565b5085925050509392505050565b6119ea60408383612234565b5050565b6119fa60808383612234565b5050565b611a07816121fe565b82525050565b6000611a18826120af565b611a228185612101565b9350611a32818560208601612243565b80840191505092915050565b6000611a49826120ba565b611a53818561210c565b9350611a63818560208601612243565b611a6c816122a5565b840191505092915050565b6000611a8460198361210c565b9150611a8f826122b6565b602082019050919050565b6000611aa7602a8361210c565b9150611ab2826122df565b604082019050919050565b6000611aca601b8361210c565b9150611ad58261232e565b602082019050919050565b6000611aed600c8361210c565b9150611af882612357565b602082019050919050565b6000611b1060268361210c565b9150611b1b82612380565b604082019050919050565b6000611b3360168361210c565b9150611b3e826123cf565b602082019050919050565b6000611b56602d8361210c565b9150611b61826123f8565b604082019050919050565b6000611b79601f8361210c565b9150611b8482612447565b602082019050919050565b6000611b9c601c8361210c565b9150611ba782612470565b602082019050919050565b6000611bbf601d8361210c565b9150611bca82612499565b602082019050919050565b6000611be2602a8361210c565b9150611bed826124c2565b604082019050919050565b6000611c05602e8361210c565b9150611c1082612511565b604082019050919050565b60006102408301611c2f600084018461211d565b611c3c6000860182611905565b50611c4a602084018461211d565b611c576020860182611905565b50611c6560408401846121a1565b611c726040860182611dd8565b50611c8060608401846121a1565b611c8d6060860182611dd8565b50611c9b60808401846121a1565b611ca86080860182611dd8565b50611cb660a08401846121a1565b611cc360a0860182611dd8565b50611cd160c08401846121a1565b611cde60c0860182611dd8565b50611cec60e08401846121a1565b611cf960e0860182611dd8565b50611d086101008401846121a1565b611d16610100860182611dd8565b50611d256101208401846121a1565b611d33610120860182611dd8565b50611d426101408401846121a1565b611d50610140860182611dd8565b50611d5f6101608401846121a1565b611d6d610160860182611dd8565b50611d7c610180840184612196565b611d8a6101808601826119ee565b50611d99610200840184612134565b858303610200870152611dad838284611981565b92505050611dbf6102208401846121a1565b611dcd610220860182611dd8565b508091505092915050565b611de18161222a565b82525050565b611df08161222a565b82525050565b6000611e028284611a0d565b915081905092915050565b6000602082019050611e226000830184611914565b92915050565b6000606082019050611e3d6000830186611914565b611e4a6020830185611914565b611e576040830184611de7565b949350505050565b60006020820190508181036000830152611e798184611923565b905092915050565b6000602082019050611e9660008301846119fe565b92915050565b60006020820190508181036000830152611eb68184611a3e565b905092915050565b60006020820190508181036000830152611ed781611a77565b9050919050565b60006020820190508181036000830152611ef781611a9a565b9050919050565b60006020820190508181036000830152611f1781611abd565b9050919050565b60006020820190508181036000830152611f3781611ae0565b9050919050565b60006020820190508181036000830152611f5781611b03565b9050919050565b60006020820190508181036000830152611f7781611b26565b9050919050565b60006020820190508181036000830152611f9781611b49565b9050919050565b60006020820190508181036000830152611fb781611b6c565b9050919050565b60006020820190508181036000830152611fd781611b8f565b9050919050565b60006020820190508181036000830152611ff781611bb2565b9050919050565b6000602082019050818103600083015261201781611bd5565b9050919050565b6000602082019050818103600083015261203781611bf8565b9050919050565b600060808201905081810360008301526120588187611c1b565b90506120676020830186611914565b6120746040830185611914565b6120816060830184611914565b95945050505050565b6000819050602082019050919050565b6000819050919050565b600081519050919050565b600081519050919050565b600081519050919050565b6000602082019050919050565b6000604082019050919050565b600082825260208201905092915050565b600082825260208201905092915050565b600081905092915050565b600082825260208201905092915050565b600061212c60208401846117be565b905092915050565b6000808335600160200384360303811261214d57600080fd5b83810192508235915060208301925067ffffffffffffffff82111561217157600080fd5b60408202360384131561218357600080fd5b509250929050565b600082905092915050565b600082905092915050565b60006121b06020840184611804565b905092915050565b60006121c38261222a565b91506121ce8361222a565b9250828210156121e1576121e0612276565b5b828203905092915050565b60006121f78261220a565b9050919050565b60008115159050919050565b600073ffffffffffffffffffffffffffffffffffffffff82169050919050565b6000819050919050565b82818337600083830152505050565b60005b83811015612261578082015181840152602081019050612246565b83811115612270576000848401525b50505050565b7f4e487b7100000000000000000000000000000000000000000000000000000000600052601160045260246000fd5b6000601f19601f8301169050919050565b7f41646472657373206973206e6f74206d61696e7461696e657200000000000000600082015250565b7f456e642074696d652073686f756c642062652067726561746572207468656e2060008201527f73746172742074696d6500000000000000000000000000000000000000000000602082015250565b7f41646472657373206973206e6f742061206d61696e7461696e65720000000000600082015250565b7f5a65726f20616464726573730000000000000000000000000000000000000000600082015250565b7f416464726573733a20696e73756666696369656e742062616c616e636520666f60008201527f722063616c6c0000000000000000000000000000000000000000000000000000602082015250565b7f455243313136373a20637265617465206661696c656400000000000000000000600082015250565b7f5075626c696320726f756e642073686f756c642073746172742061667465722060008201527f7072697661746520726f756e6400000000000000000000000000000000000000602082015250565b7f43616e64696461746520616c7265616479206973206d61696e7461696e657200600082015250565b7f696e697469616c41646472657373207c7c20746f6b656e203d3d203000000000600082015250565b7f416464726573733a2063616c6c20746f206e6f6e2d636f6e7472616374000000600082015250565b7f5361666545524332303a204552433230206f7065726174696f6e20646964206e60008201527f6f74207375636365656400000000000000000000000000000000000000000000602082015250565b7f546f6b656e20737570706c7920666f722073616c652073686f756c642062652060008201527f67726561746572207468656e2030000000000000000000000000000000000000602082015250565b612569816121ec565b811461257457600080fd5b50565b612580816121fe565b811461258b57600080fd5b50565b6125978161222a565b81146125a257600080fd5b5056fea2646970667358221220a9803e8b4d0af1f59efa5d83df565c9a50905997b3c88e8e308106021d78f89864736f6c63430008040033",
  "devdoc": {
    "kind": "dev",
    "methods": {},
    "version": 1
  },
  "userdoc": {
    "kind": "user",
    "methods": {},
    "version": 1
  },
  "storageLayout": {
    "storage": [
      {
        "astId": 1664,
        "contract": "contracts/Admin.sol:Admin",
        "label": "maintainers",
        "offset": 0,
        "slot": "0",
        "type": "t_mapping(t_address,t_bool)"
      },
      {
        "astId": 1668,
        "contract": "contracts/Admin.sol:Admin",
        "label": "maintainerIndexes",
        "offset": 0,
        "slot": "1",
        "type": "t_mapping(t_address,t_uint256)"
      },
      {
        "astId": 1671,
        "contract": "contracts/Admin.sol:Admin",
        "label": "maintainersList",
        "offset": 0,
        "slot": "2",
        "type": "t_array(t_address)dyn_storage"
      },
      {
        "astId": 1429,
        "contract": "contracts/Admin.sol:Admin",
        "label": "tokenSales",
        "offset": 0,
        "slot": "3",
        "type": "t_array(t_address)dyn_storage"
      },
      {
        "astId": 1431,
        "contract": "contracts/Admin.sol:Admin",
        "label": "masterTokenSale",
        "offset": 0,
        "slot": "4",
        "type": "t_address"
      },
      {
        "astId": 1433,
        "contract": "contracts/Admin.sol:Admin",
        "label": "stakingContract",
        "offset": 0,
        "slot": "5",
        "type": "t_address"
      },
      {
        "astId": 1436,
        "contract": "contracts/Admin.sol:Admin",
        "label": "forAirdrop",
        "offset": 0,
        "slot": "6",
        "type": "t_address"
      },
      {
        "astId": 1438,
        "contract": "contracts/Admin.sol:Admin",
        "label": "exchangeOracle",
        "offset": 0,
        "slot": "7",
        "type": "t_address"
      },
      {
        "astId": 1443,
        "contract": "contracts/Admin.sol:Admin",
        "label": "tokenSalesM",
        "offset": 0,
        "slot": "8",
        "type": "t_mapping(t_address,t_bool)"
      }
    ],
    "types": {
      "t_address": {
        "encoding": "inplace",
        "label": "address",
        "numberOfBytes": "20"
      },
      "t_array(t_address)dyn_storage": {
        "base": "t_address",
        "encoding": "dynamic_array",
        "label": "address[]",
        "numberOfBytes": "32"
      },
      "t_bool": {
        "encoding": "inplace",
        "label": "bool",
        "numberOfBytes": "1"
      },
      "t_mapping(t_address,t_bool)": {
        "encoding": "mapping",
        "key": "t_address",
        "label": "mapping(address => bool)",
        "numberOfBytes": "32",
        "value": "t_bool"
      },
      "t_mapping(t_address,t_uint256)": {
        "encoding": "mapping",
        "key": "t_address",
        "label": "mapping(address => uint256)",
        "numberOfBytes": "32",
        "value": "t_uint256"
      },
      "t_uint256": {
        "encoding": "inplace",
        "label": "uint256",
        "numberOfBytes": "32"
      }
    }
  }
}